:10000000ACC00000C6C00000C4C00000C2C00000F8
:10001000C0C00000BEC00000BCC00000BAC00000EC
:10002000B8C00000B6C00000B4C00000F9C50000B0
:10003000B0C00000AEC00000ACC00000AAC000000C
:10004000A8C00000A6C00000A4C00000A2C000001C
:10005000A0C000009EC000009CC000002DC2000097
:1000600098C0000096C0000094C0000092C000003C
:1000700090C000006364696E6F70737578585B00A0
:10008000240350004F004B004B0045004E00200061
:1000900043004F004E00540052004F004C004C00F3
:1000A0004500520000001C0348004F005200490068
:1000B000200043004F002E002C004C005400440050
:1000C0002E00000004030904090229000101008038
:1000D000FA090400000203000000092111010001D7
:1000E0002256000705020340000507058103400072
:1000F0000512010002000000400D0F9200000101F6
:1001000002000105010905A1011500250135004581
:1001100001750195100509190129108102050125B4
:1001200007463B0175049501651409398142650054
:100130009501810126FF0046FF000930093109328F
:1001400009357508950481020600FF092095018193
:10015000020A212695089102C00011241FBECFEF8C
:10016000D2E0DEBFCDBF11E0A0E0B1E0E4EDF7E109
:1001700002C005900D92A439B107D9F721E0A4E996
:10018000B1E001C01D92A03EB207E1F799D20C94F4
:10019000E80B36CFE5E9F1E01182108280E8838335
:1001A00084838583868388E082830895EF92FF921B
:1001B0000F931F93CF93DF93CDB7DEB768970FB63A
:1001C000F894DEBF0FBECDBF8E010F5F1F4F1F9390
:1001D0000F937E0121E1E20EF11CFF92EF9221E0EC
:1001E00031E03F932F939F938F93C2D767E071E0E5
:1001F000C70168D70FB6F894DEBF0FBECDBF892BFD
:1002000059F41092000162E171E0C8015BD7892BBB
:1002100079F581E090E046C06EE071E0C70152D709
:10022000892B21F481E080930001EDCF61E171E041
:10023000C70148D7892B11F482E0F5CF64E171E062
:10024000C70140D7892B11F483E0EDCF67E171E05E
:10025000C70138D7892B11F484E0E5CF6AE171E05A
:10026000C70130D7892B11F485E0DDCF86E0DBCFE5
:100270006EE171E0C80126D7892B19F482E090E085
:1002800011C060E271E0C8011DD7892B19F484E028
:1002900090E008C064E571E0C80114D7892B39F4F7
:1002A00088E090E09093BE018093BD0164C063E25A
:1002B00071E0C80107D7892B19F480E190E0F2CFF3
:1002C00062E971E0C801FED6892B19F480E290E062
:1002D000E9CF62E271E0C801F5D6892B19F480E418
:1002E00090E0E0CF65E271E0C801ECD6892B19F40B
:1002F00080E890E0D7CF68E271E0C801E3D6892BAF
:1003000019F480E091E0CECF6EE271E0C801DAD658
:10031000892B19F480E092E0C5CF63E371E0C80156
:10032000D1D6892B19F480E094E0BCCF6AE371E068
:10033000C801C8D6892B19F480E098E0B3CF61E4F6
:1003400071E0C801BFD6892B19F480E090E1AACFF3
:1003500066E471E0C801B6D6892B19F480E090E21A
:10036000A1CF6EE471E0C801ADD6892B41F51092A2
:10037000BE011092BD0180910001823009F492C04B
:1003800008F080C0811189C08091950190919601FB
:100390002091BD013091BE01822793279093960151
:1003A0008093950168960FB6F894DEBF0FBECDBF5F
:1003B000DF91CF911F910F91FF90EF90089562E52B
:1003C00071E0C8017FD6892B19F48FEF90E06ACFD6
:1003D00066E571E0C80176D6892B49F26AE571E0DD
:1003E000C80170D6892B09F414CF6BE671E0C801FF
:1003F00069D6892B09F442CF64E671E0C80162D660
:10040000892B19F483E090E04DCF61E771E0C801DA
:1004100059D6892B09F43BCF68E771E0C80152D661
:10042000892B19F485E090E03DCF6FE771E0C801BA
:1004300049D6892B19F486E090E034CF64E871E066
:10044000C80140D6892B19F487E090E02BCF6DE8E6
:1004500071E0C80137D6892B81F480910001853085
:1004600009F046CF88E090E09093BE018093BD01F3
:100470008091BD018093970195CF86E08093000124
:1004800089DE90CF843099F0853091F38330C1F7C5
:100490008091BD0180939A0185CF8091BD018093A9
:1004A000980180CF8091BD01809399017BCF80918D
:1004B000BD0180939B0176CF1F920F920FB60F92D2
:1004C00011241F932F933F934F935F936F937F93C9
:1004D0008F939F93AF93BF93CF93DF93EF93FF934C
:1004E0008091DA019091DB0100D6EC01182F809108
:1004F000C80085FF03C0CE01992735D61D3001F510
:100500008DE991E053DE10929401EDE9F1E080E293
:10051000DF011D928A95E9F7FF91EF91DF91CF916D
:10052000BF91AF919F918F917F916F915F914F910B
:100530003F912F911F910F900FBE0F901F90189514
:100540001A3051F3E0919401E03230F781E08E0FE0
:1005500080939401F0E0E356FE4FC083DDCF84B773
:10056000877F84BF0FB6F894A8958091600088615A
:1005700080936000109260000FBE80E890E00FB69C
:10058000F89480936100909361000FBE3AC3089580
:10059000089542E360EC82E077D242E361EC81E0CF
:1005A00073C2DC0188E0E5E9F1E001900D928A95E3
:1005B000E1F70895CF93DF93CDB7DEB728970FB655
:1005C000F894DEBF0FBECDBF8091C501813059F0D8
:1005D000893001F128960FB6F894DEBF0FBECDBF6B
:1005E000DF91CF9108958091C401813A99F7CE01AE
:1005F0000196D7DF8091E800877F8093E80068E06C
:1006000070E0CE01019658D18091E8008B778093FD
:10061000E800E0CF8091C4018132E1F68091E800EA
:10062000877F8093E80067E070E0CE0101969DD15E
:100630008091E8008E77EBCFCF93DF93CDB7DEB715
:1006400028970FB6F894DEBF0FBECDBF8091C301CF
:10065000843069F582E08093E9008091E80082FFB0
:1006600010C08091E80085FF07C050E040E067E0DF
:1006700070E0CE010196D2D08091E8008B77809314
:10068000E80081E08093E9008091E80080FF0FC0DE
:10069000CE01019686DF50E040E068E070E0CE01D8
:1006A00001966ED08091E8008E778093E8002896BE
:1006B0000FB6F894DEBF0FBECDBFDF91CF91089586
:1006C00087E690E09093CD008093CC0086E0809305
:1006D000CA001092C80088E18093C900539A5A9AC0
:1006E00090E080E0D1D478948091C90080688093B4
:1006F000C90050DD34DF78949FDF91D4FDCF9C0199
:10070000DA01832F992783309105B9F060F48130A5
:10071000910561F10297E1F489E290E028EC30E084
:100720002D933C9308958132910529F1829781F4AC
:1007300086E590E023E031E0F3CFC901992721302D
:1007400061F08230910579F0E4ECF0E0892B39F02A
:1007500090E080E030E020E0E3CFE6EAF0E0849152
:1007600090E09F01DDCFE0E8F0E0F9CF82E190E09A
:1007700021EF30E0D5CF89E090E02AED30E0D0CF16
:10078000AF92BF92CF92DF92FF920F931F93CF93BE
:10079000DF936C01EB018A01CAD1F82E811124C0CC
:1007A0000115110539F0F80180819181C81BD90B21
:1007B000C80ED91EB12CA12C2097B1F08091E80071
:1007C00085FD22C08091E8008E778093E80027D4D1
:1007D00001151105A1F0F80180819181A80EB91EC3
:1007E000B182A08285E0F82E8F2DDF91CF911F91ED
:1007F0000F91FF90DF90CF90BF90AF90089597D169
:100800008823D1F2F82EF0CFF60181916F01809309
:10081000F1002197FFEFAF1ABF0ACECFAF92BF9280
:10082000CF92DF92FF920F931F93CF93DF936C01D0
:10083000EB018A017CD1F82E811124C0011511052C
:1008400039F0F80180819181C81BD90BC80ED91EDF
:10085000B12CA12C2097B1F08091E80085FD22C039
:100860008091E8008B778093E800D9D301151105BA
:10087000A1F0F80180819181A80EB91EB182A082F9
:1008800085E0F82E8F2DDF91CF911F910F91FF9072
:10089000DF90CF90BF90AF90089549D18823D1F2D7
:1008A000F82EF0CF8091F100F60181936F0121972E
:1008B000FFEFAF1ABF0ACECFFC01CB012091CA01D6
:1008C0003091CB012617370790F0009729F420913B
:1008D000E8002E772093E80040E0009751F44111A2
:1008E00008C08091E80082FF30C080E00895C9010F
:1008F000F3CF2091C3012223A1F12530A1F1209152
:10090000E80023FD2CC02091E80022FDEACF2091D1
:10091000E80020FFE2CF2091F20030E0009719F0CC
:100920002034310558F041E02034310509F040E031
:100930002091E8002E772093E800CFCF419140939B
:10094000F10001972F5F3F4FE9CF8091C3018823CA
:1009500041F0853041F08091E80083FFC2CF81E013
:10096000089582E0089583E00895FC01CB0100978B
:1009700029F42091E8002B772093E800009731F4C8
:100980008091E80080FF1AC080E008952091C301A3
:100990002223F1F02530C1F02091E80023FD16C09C
:1009A0002091E80022FFEACF2091F200222309F3F0
:1009B0002091F10021930197B9F7DBCF8091C3011A
:1009C000882331F08530E1F683E0089581E00895D1
:1009D00082E00895FC01CB012091CA013091CB0146
:1009E0002617370790F0009729F42091E8002E771A
:1009F0002093E80040E0009751F4411108C0809135
:100A0000E80082FF31C080E00895C901F3CF209152
:100A1000C3012223A9F12530A9F12091E80023FD8B
:100A20002DC02091E80022FDEACF2091E80020FFB0
:100A3000E2CF2091F20030E0009719F02034310528
:100A400058F041E02034310509F040E02091E80001
:100A50002E772093E800CFCF44914093F100319658
:100A600001972F5F3F4FE8CF8091C301882341F06A
:100A7000853041F08091E80083FFC1CF81E0089587
:100A800082E0089583E00895982F953028F08F70C4
:100A90008093E90081E008959093E900242F762F58
:100AA00050E0981731F07091EC002091ED005091DA
:100AB000F00021FD02C09F5FE8CF3091EB003E7F48
:100AC0003093EB003091ED003D7F3093ED0030919D
:100AD000EB0031603093EB007093EC002093ED005D
:100AE0005093F0002091EE0027FDE5CF80E00895BF
:100AF0008091C40187FF13C08091E80082FF06C087
:100B00008091E8008B778093E80004C08091C30156
:100B10008111F2CF08958091C3018823D9F3809188
:100B2000E80080FFF8CF8091E8008E77ECCF20912D
:100B3000E4003091E50095E6A9012091EC00822FB8
:100B4000817020FF06C08091E80080FF06C080E031
:100B500008952091E80022FD1AC08091C3018823E6
:100B600089F0853089F08091EB0085FD0FC02091E0
:100B7000E4003091E50042175307F9F29150E1F695
:100B800084E0089582E0089583E0089581E0089567
:100B900041D043D08091D8008F778093D800809146
:100BA000D80080688093D8008091D8008F7D809392
:100BB000D80084E089BD86E089BD09B400FEFDCF80
:100BC0001092C3011092BF011092C1011092C00196
:100BD00042E360E080E058DF8091E1008E7F809307
:100BE000E1008091E20081608093E2008091E20068
:100BF00088608093E2008091E0008E7F8093E00027
:100C00000895E3E6F0E080818E7F808381E0809329
:100C1000C201BECF1092E20008951092E100089543
:100C20001F920F920FB60F9211242F933F934F9361
:100C30005F936F937F938F939F93AF93BF93EF9344
:100C4000FF938091E10082FF0AC08091E20082FF61
:100C500006C08091E1008B7F8093E100DFD180911D
:100C6000E10080FF17C08091E20080FF13C08091F7
:100C7000E2008E7F8093E2008091E20080618093A9
:100C8000E2008091D80080628093D80019BC109255
:100C9000C3017EDC8091E10084FF27C08091E200E7
:100CA00084FF23C084E089BD86E089BD09B400FECD
:100CB000FDCF8091D8008F7D8093D8008091E10096
:100CC0008F7E8093E1008091E2008F7E8093E2002E
:100CD0008091E20081608093E2008091BF018823CF
:100CE000D9F184E08093C30152DC8091E10083FF5D
:100CF00022C08091E20083FF1EC08091E100877FC7
:100D00008093E10082E08093C3011092BF01809143
:100D1000E1008E7F8093E1008091E2008E7F8093DE
:100D2000E2008091E20080618093E20042E360E0B3
:100D300080E0AADE73D1FF91EF91BF91AF919F91B7
:100D40008F917F916F915F914F913F912F910F9074
:100D50000FBE0F901F9018958091E30087FD02C091
:100D600081E0C0CF83E0BECF1F93CF93DF93CDB799
:100D7000DEB7AA970FB6F894DEBF0FBECDBF84ECE6
:100D800091E0FC0101962091F100208321E08C3C50
:100D90009207B9F70FDC8091E80083FF10C08091C3
:100DA000C4019091C501953009F4C2C000F5292F06
:100DB0002D7F213009F489C0992309F45EC0809108
:100DC000E80083FF0AC08091E800877F8093E800F5
:100DD0008091EB0080628093EB00AA960FB6F894A6
:100DE000DEBF0FBECDBFDF91CF911F910895983028
:100DF00009F4D5C0993009F4DFC0963001F7805866
:100E00008230E8F68091C6019091C7018C3D23E0C5
:100E1000920709F0AFC083E08A838AE289834FB7E3
:100E2000F894DE01139620E03EE051E2E32FF0E07B
:100E300050935700E49120FF03C0E295EF703F5FAD
:100E4000EF708E2F90E0EA3008F492C0C7968D9331
:100E50009D932F5F243151F74FBF8091E800877F2A
:100E60008093E8006AE270E0CE01019625DD809172
:100E7000E8008B778093E800A2CF803899F0823821
:100E800009F09DCF8091C8018F70853008F097CF11
:100E90008093E9008091EB0085FB882780F9109210
:100EA000E90006C08091C0019091C101911182605A
:100EB0009091E800977F9093E8008093F100109262
:100EC000F1008091E8008E77A5C0882309F492C0D4
:100ED000823009F074CF8091C601811196C0809153
:100EE000C8018F702FEF280F243008F068CF80934F
:100EF000E9002091EB0020FF88C0933031F480910D
:100F0000EB0080628093EB0080C09091EB009061D9
:100F10009093EB0021E030E001C0220F8A95EAF7C0
:100F20002093EA001092EA008091EB008860EACFFB
:100F3000811145CF1091C6011F778091E300807821
:100F4000812B8093E3008091E800877F8093E80005
:100F5000CFDD8091E80080FFFCCF8091E3008068C6
:100F60008093E30082E0111183E08093C30127CFD7
:100F7000C0966DCF6091C8017091C901AE014F5FFD
:100F80005F4FBDDBBC01892B09F419CF8091E800CC
:100F9000877F8093E80089819A811CDD68CF803843
:100FA00009F00DCF8091E800877F8093E800809161
:100FB000BF018093F10085CF811101CF9091C601CF
:100FC000923008F0FCCE8091E800877F8093E800A3
:100FD0009093BF018DDD8091BF01882311F084E0E3
:100FE00005C08091E30087FDFACF81E08093C301C3
:100FF000D0DAE5CE8091C601813009F0E0CE81E003
:10100000933009F080E08093C1011092E900809153
:10101000E800877F8093E8006BDDD1CE0895CF9301
:101020008091C301882399F0C091E900CF7090911D
:10103000EC00892F817090FD80E8C82B1092E900A8
:101040008091E80083FD90DECF70C093E900CF91DE
:1010500008959091C80095FFFCCF8093CE0090E05A
:1010600080E008958091C80087FF08C08091C80083
:1010700087FF07C08091CE0090E008958EEF9FEF2C
:1010800008958FEF9FEF0895FC01892B59F48CECA4
:1010900091E09093DB018093DA019093DD018093DE
:1010A000DC01FC018EE0DF011D928A95E9F783E007
:1010B000838389E298E09187808782E398E0938731
:1010C00082870895FB01DC018D9181341CF08B3502
:1010D0000CF4805E619161341CF06B350CF4605E41
:1010E000861B611189F3990B0895CF93DF93EC016F
:1010F0008B8180FF33C086FF0CC08F7B8B838E81FA
:101100009F8101969F838E838A8190E0DF91CF91AA
:10111000089582FF15C0E881F9819081292F092E59
:10112000000C330B80629923C1F03196F983E88378
:101130008E819F8101969F838E83C9019927E6CF77
:10114000EA85FB85CE0109959C0197FFF1CF8B8144
:101150002F3F3F4F31F090E2892B8B838FEF9FEF32
:10116000D5CF90E1F9CF6091DC017091DD01AEC285
:10117000AEE0B0E0EDEBF8E004C385E08C838B8952
:101180009C899A838983AE01495E5F4F6D897E8910
:10119000CE01019679D12E96E2E00FC3FC01CA017F
:1011A000DB0120FD08C023FD05C022FF02C0B38380
:1011B000A283918380830895CF92DF92EF92FF9272
:1011C000CF93DF9300D000D0CDB7DEB76B017C01A9
:1011D00083E044FD10C084E046FD0DC0D601F70158
:1011E000AA0FBB1FEE1FFF1F1094D1F7CA0EDB1E04
:1011F000EE1EFF1E81E0CC0CDD1CEE1CFF1C81509E
:10120000D1F7D701C601820F911DA11DB11DBC01EF
:10121000CD010F900F900F900F90DF91CF91FF9025
:10122000EF90DF90CF9008950F931F93CF93DF93AC
:101230008C01C8015ADFEC0197FD06C034D2892B1E
:10124000C1F7B801CE0172D2CE01DF91CF911F91CB
:101250000F910895B0E0A0E0EFE2F9E08AC28C01BE
:10126000C62F5A01F22E41DFFC019927EB3221F003
:101270008D9771F46894F7F8C15029F480E0CDB7E8
:10128000DEB7EAE092C2C80130DFFC0197FDF6CF7D
:10129000DF2DDD7F8F2D8073F9F4E033E9F4EE2448
:1012A000EA94EC0EC13081F0C8011FDFFC0197FD0C
:1012B0000BC08F7D883561F4D264C25029F0C8011B
:1012C00014DFFC0197FF08C0C12CD12C76011BC094
:1012D000F6FE2AC0D260CE2DC12CD12C760120ED95
:1012E0002E0F283020F1D4FD09C02A3000F1D6FF9E
:1012F00005C02F7D8FEE820F8630C0F0B801CF0180
:1013000015D2D1FFBBCFD7FF08C0F094E094D094A2
:10131000C094C11CD11CE11CF11C2D2FB701A601EA
:10132000C5013CDF81E0ABCFD261D5CF27504D2F37
:10133000C701B60141DF6B017C01D260C15019F3D6
:10134000C801D3DEFC0197FFCACFDBCFA0E2B0E03B
:10135000EBEAF9E00CC26C01962E7A01CE010196FF
:101360005C0180E2F50111928A95E9F7F60183802C
:10137000890150E040E0B0E020E0A0E061E070E0F2
:10138000F80183FC959183FE9191892F8F01911132
:1013900006C010E000E0C801A096ECE004C29E3553
:1013A00019F44115510531F1A4171506ECF49D35DA
:1013B00049F19D32C9F4222309F1E82FE695E6951B
:1013C000E695EA0DFB2DF11D982F97709B0101C04A
:1013D000220F9A95EAF79081292B20838B1781F0B1
:1013E0008B1730F48F5FE9CF2111E7CFB92FE5CF0D
:1013F0008150E3CFA1E04F5F5F4FC2CF21E0FBCF31
:1014000020E0F9CF222319F08E8180628E83AA23F7
:1014100061F0F5019E012F5D3F4F8081DF01319624
:1014200080958C93E217F307C1F788248394C60153
:101430005CDE97FD15C0E82FE695E695E695EA0D8A
:10144000FB2DF11D208130E0AC014770552702C013
:10145000359527954A95E2F720FD05C0B60166D17E
:10146000882059F096CFE114F10419F0F701819327
:101470007F019A94812C9110DACFE114F10409F4E0
:101480008ACFF701108287CFA6E0B0E0E9E4FAE066
:101490006CC15C016D837E83742E652EDC01179612
:1014A0001C921E921697C12CD5011396FC90ED81CB
:1014B000FE81F3FC8591F3FE8191182FFE83ED836D
:1014C0008823D9F090E0EFD0892B19F0C501ACDE6C
:1014D000EBCF153251F4ED81FE81F3FC1591F3FE53
:1014E0001191FE83ED83153259F4C501FEDD97FDA0
:1014F0009CC01817C9F2B50119D18C2D90E099C084
:1015000000E01A3249F4ED81FE81F3FC1591F3FEFF
:101510001191FE83ED8301E0D12C20ED210F2A30C3
:1015200050F101FF3FC0DD2041F3183609F43DC002
:101530001C3609F446C0112301F3612F70E084E7E3
:1015400090E0B9D0892BC9F2F12CE12C00FD06C046
:10155000E72DF62DE190F1907E2E6F2E1E3609F0CC
:101560003AC0D50116964D915C9170E060E0202F55
:10157000C70114DE99CF02608D2D90E0B0E0A0E0AD
:1015800089839A83AB83BC8340E2BC01CD0114DE26
:10159000D62EED81FE81F3FC1591F3FE1191FE83B1
:1015A000ED83BBCFDD24DA94C0CFED81FE81F3FC67
:1015B0001591F3FE1191FE83ED83183609F0BBCF30
:1015C00008600460ED81FE81F3FC1591F3FE11913A
:1015D000FE83ED83B0CF1336A9F401FD02C0DD24F4
:1015E000D394C50182DD97FD20C0E114F10419F008
:1015F000F70181937F01DA94D110F3CF00FD54CF2E
:10160000C39452CF1B35C1F42D813E81A7016D2DAE
:10161000C5019CDE8D839E83ED81FE81EF2B71F7EA
:10162000F5018381807309F468CF8FEF9FEFC110BC
:1016300064CF2696EEE0B5C0C501F6DD97FDF5CF87
:101640001F3679F130F4143641F0193639F0006460
:1016500005C01337A1F01537D1F70062202FA7017D
:101660006D2DC501F7DD8111C9CFDACFE114F10489
:1016700019F0F70181927F01DA94DD2059F0C5015C
:1016800034DD4C0197FD06C00ED0892B79F3B501EE
:10169000C4014CD0E114F10409F4B0CFD7011C927D
:1016A000ADCF0061DBCF911159C0803219F0895064
:1016B0008550D0F70895FC010590061621F0002012
:1016C000D9F7C00108953197CF0108950F931F9363
:1016D000CF93DF93182F092FEB018B8181FD09C078
:1016E0001FEF0FEF812F902FDF91CF911F910F915F
:1016F000089582FF14C02E813F818C819D8128171F
:1017000039073CF4E881F981CF01019699838883F8
:1017100010838E819F8101969F838E83E3CFE8851E
:10172000F985812F0995892BA1F3DACFFB0123815C
:1017300020FF11C026FD0FC08F3F980771F08283F4
:101740002F7D2064238326813781215031093783FF
:101750002683992708958FEF9FEF0895992788276B
:1017600008952F923F924F925F926F927F928F9245
:101770009F92AF92BF92CF92DF92EF92FF920F9320
:101780001F93CF93DF93CDB7DEB7CA1BDB0B0FB62A
:10179000F894DEBF0FBECDBF09942A8839884888E7
:1017A0005F846E847D848C849B84AA84B984C8847D
:1017B000DF80EE80FD800C811B81AA81B981CE0F74
:1017C000D11D0FB6F894DEBF0FBECDBFED01089559
:0417D000F894FFCFBB
:1017D40006257320257300427574746F6E004C588F
:1017E400004C5900525800525900484154004200DC
:1017F40041005A4C005A52004D494E555300504C2A
:101804005553004C434C49434B0052434C49434BC2
:1018140000484F4D450043415054555245004D49F1
:101824004E004D415800544F5000544F505F5249A0
:1018340047485400424F54544F4D5F52494748540F
:1018440000424F54544F4D00424F54544F4D5F4C3F
:1018540045465400544F505F4C4546540043454E52
:041864005445520095
:00000001FF
